{
  "contractName": "rumor",
  "abi": [
    {
      "inputs": [],
      "payable": false,
      "stateMutability": "nonpayable",
      "type": "constructor"
    },
    {
      "anonymous": false,
      "inputs": [
        {
          "indexed": false,
          "internalType": "uint256",
          "name": "messageId",
          "type": "uint256"
        },
        {
          "indexed": false,
          "internalType": "string",
          "name": "trace",
          "type": "string"
        }
      ],
      "name": "SavedMessage",
      "type": "event"
    },
    {
      "constant": false,
      "inputs": [
        {
          "internalType": "string",
          "name": "ID",
          "type": "string"
        },
        {
          "internalType": "string",
          "name": "message",
          "type": "string"
        },
        {
          "internalType": "string",
          "name": "time",
          "type": "string"
        }
      ],
      "name": "addMessageLine",
      "outputs": [],
      "payable": false,
      "stateMutability": "nonpayable",
      "type": "function"
    },
    {
      "constant": false,
      "inputs": [
        {
          "internalType": "string",
          "name": "ID",
          "type": "string"
        },
        {
          "internalType": "string",
          "name": "message",
          "type": "string"
        },
        {
          "internalType": "string",
          "name": "time",
          "type": "string"
        }
      ],
      "name": "addMessageLine2",
      "outputs": [],
      "payable": false,
      "stateMutability": "nonpayable",
      "type": "function"
    },
    {
      "constant": false,
      "inputs": [
        {
          "internalType": "string",
          "name": "ID",
          "type": "string"
        }
      ],
      "name": "getTrace",
      "outputs": [
        {
          "internalType": "string",
          "name": "",
          "type": "string"
        }
      ],
      "payable": false,
      "stateMutability": "nonpayable",
      "type": "function"
    },
    {
      "constant": false,
      "inputs": [
        {
          "internalType": "string",
          "name": "ID",
          "type": "string"
        }
      ],
      "name": "getTrace2",
      "outputs": [
        {
          "internalType": "string",
          "name": "",
          "type": "string"
        }
      ],
      "payable": false,
      "stateMutability": "nonpayable",
      "type": "function"
    }
  ],
  "bytecode": "0x608060405234801561001057600080fd5b50611079806100206000396000f3fe608060405234801561001057600080fd5b506004361061004c5760003560e01c8063054961551461005157806362774aa2146101855780636bd3ca04146102b9578063bd9cf869146104a2575b600080fd5b61010a6004803603602081101561006757600080fd5b810190808035906020019064010000000081111561008457600080fd5b82018360208201111561009657600080fd5b803590602001918460018302840111640100000000831117156100b857600080fd5b91908080601f016020809104026020016040519081016040528093929190818152602001838380828437600081840152601f19601f82011690508083019250505050505050919291929050505061068b565b6040518080602001828103825283818151815260200191508051906020019080838360005b8381101561014a57808201518184015260208101905061012f565b50505050905090810190601f1680156101775780820380516001836020036101000a031916815260200191505b509250505060405180910390f35b61023e6004803603602081101561019b57600080fd5b81019080803590602001906401000000008111156101b857600080fd5b8201836020820111156101ca57600080fd5b803590602001918460018302840111640100000000831117156101ec57600080fd5b91908080601f016020809104026020016040519081016040528093929190818152602001838380828437600081840152601f19601f820116905080830192505050505050509192919290505050610799565b6040518080602001828103825283818151815260200191508051906020019080838360005b8381101561027e578082015181840152602081019050610263565b50505050905090810190601f1680156102ab5780820380516001836020036101000a031916815260200191505b509250505060405180910390f35b6104a0600480360360608110156102cf57600080fd5b81019080803590602001906401000000008111156102ec57600080fd5b8201836020820111156102fe57600080fd5b8035906020019184600183028401116401000000008311171561032057600080fd5b91908080601f016020809104026020016040519081016040528093929190818152602001838380828437600081840152601f19601f8201169050808301925050505050505091929192908035906020019064010000000081111561038357600080fd5b82018360208201111561039557600080fd5b803590602001918460018302840111640100000000831117156103b757600080fd5b91908080601f016020809104026020016040519081016040528093929190818152602001838380828437600081840152601f19601f8201169050808301925050505050505091929192908035906020019064010000000081111561041a57600080fd5b82018360208201111561042c57600080fd5b8035906020019184600183028401116401000000008311171561044e57600080fd5b91908080601f016020809104026020016040519081016040528093929190818152602001838380828437600081840152601f19601f8201169050808301925050505050505091929192905050506108a7565b005b610689600480360360608110156104b857600080fd5b81019080803590602001906401000000008111156104d557600080fd5b8201836020820111156104e757600080fd5b8035906020019184600183028401116401000000008311171561050957600080fd5b91908080601f016020809104026020016040519081016040528093929190818152602001838380828437600081840152601f19601f8201169050808301925050505050505091929192908035906020019064010000000081111561056c57600080fd5b82018360208201111561057e57600080fd5b803590602001918460018302840111640100000000831117156105a057600080fd5b91908080601f016020809104026020016040519081016040528093929190818152602001838380828437600081840152601f19601f8201169050808301925050505050505091929192908035906020019064010000000081111561060357600080fd5b82018360208201111561061557600080fd5b8035906020019184600183028401116401000000008311171561063757600080fd5b91908080601f016020809104026020016040519081016040528093929190818152602001838380828437600081840152601f19601f820116905080830192505050505050509192919290505050610b92565b005b60606000826040518082805190602001908083835b602083106106c357805182526020820191506020810190506020830392506106a0565b6001836020036101000a03801982511681845116808217855250505050505090500191505090815260200160405180910390206000018054600181600116156101000203166002900480601f01602080910402602001604051908101604052809291908181526020018280546001816001161561010002031660029004801561078d5780601f106107625761010080835404028352916020019161078d565b820191906000526020600020905b81548152906001019060200180831161077057829003601f168201915b50505050509050919050565b60606000826040518082805190602001908083835b602083106107d157805182526020820191506020810190506020830392506107ae565b6001836020036101000a03801982511681845116808217855250505050505090500191505090815260200160405180910390206001018054600181600116156101000203166002900480601f01602080910402602001604051908101604052809291908181526020018280546001816001161561010002031660029004801561089b5780601f106108705761010080835404028352916020019161089b565b820191906000526020600020905b81548152906001019060200180831161087e57829003601f168201915b50505050509050919050565b60606109016108ea6040518060400160405280600181526020017f2900000000000000000000000000000000000000000000000000000000000000815250610e7d565b6108f384610e7d565b610eab90919063ffffffff16565b9050606061095d61091183610e7d565b61094f6040518060400160405280600181526020017f2800000000000000000000000000000000000000000000000000000000000000815250610e7d565b610eab90919063ffffffff16565b9050606061098461096d83610e7d565b61097687610e7d565b610eab90919063ffffffff16565b905060606109e06109c96040518060400160405280600381526020017f3d3d3e0000000000000000000000000000000000000000000000000000000000815250610e7d565b6109d284610e7d565b610eab90919063ffffffff16565b9050610b096109ee82610e7d565b610afb60008a6040518082805190602001908083835b60208310610a275780518252602082019150602081019050602083039250610a04565b6001836020036101000a03801982511681845116808217855250505050505090500191505090815260200160405180910390206000018054600181600116156101000203166002900480601f016020809104026020016040519081016040528092919081815260200182805460018160011615610100020316600290048015610af15780601f10610ac657610100808354040283529160200191610af1565b820191906000526020600020905b815481529060010190602001808311610ad457829003601f168201915b5050505050610e7d565b610eab90919063ffffffff16565b6000886040518082805190602001908083835b60208310610b3f5780518252602082019150602081019050602083039250610b1c565b6001836020036101000a03801982511681845116808217855250505050505090500191505090815260200160405180910390206000019080519060200190610b88929190610f85565b5050505050505050565b6060610bec610bd56040518060400160405280600181526020017f2900000000000000000000000000000000000000000000000000000000000000815250610e7d565b610bde84610e7d565b610eab90919063ffffffff16565b90506060610c48610bfc83610e7d565b610c3a6040518060400160405280600181526020017f2800000000000000000000000000000000000000000000000000000000000000815250610e7d565b610eab90919063ffffffff16565b90506060610c6f610c5883610e7d565b610c6187610e7d565b610eab90919063ffffffff16565b90506060610ccb610cb46040518060400160405280600381526020017f3d3d3e0000000000000000000000000000000000000000000000000000000000815250610e7d565b610cbd84610e7d565b610eab90919063ffffffff16565b9050610df4610cd982610e7d565b610de660008a6040518082805190602001908083835b60208310610d125780518252602082019150602081019050602083039250610cef565b6001836020036101000a03801982511681845116808217855250505050505090500191505090815260200160405180910390206001018054600181600116156101000203166002900480601f016020809104026020016040519081016040528092919081815260200182805460018160011615610100020316600290048015610ddc5780601f10610db157610100808354040283529160200191610ddc565b820191906000526020600020905b815481529060010190602001808311610dbf57829003601f168201915b5050505050610e7d565b610eab90919063ffffffff16565b6000886040518082805190602001908083835b60208310610e2a5780518252602082019150602081019050602083039250610e07565b6001836020036101000a03801982511681845116808217855250505050505090500191505090815260200160405180910390206001019080519060200190610e73929190610f85565b5050505050505050565b610e85611005565b600060208301905060405180604001604052808451815260200182815250915050919050565b60608082600001518460000151016040519080825280601f01601f191660200182016040528015610eeb5781602001600182028038833980820191505090505b5090506000602082019050610f098186602001518760000151610f2d565b610f228560000151820185602001518660000151610f2d565b819250505092915050565b5b60208110610f515781518352602083019250602082019150602081039050610f2e565b600061ffff90506000821115610f6f576001826020036101000a0390505b8019835116818551168181178652505050505050565b828054600181600116156101000203166002900490600052602060002090601f016020900481019282601f10610fc657805160ff1916838001178555610ff4565b82800160010185558215610ff4579182015b82811115610ff3578251825591602001919060010190610fd8565b5b509050611001919061101f565b5090565b604051806040016040528060008152602001600081525090565b61104191905b8082111561103d576000816000905550600101611025565b5090565b9056fea265627a7a72315820e7eae4630621443c2bd8e3fec5cd0b63e5a92dfacd3c06614e7b707f8f146c8d64736f6c63430005100032",
  "source": "pragma solidity ^0.5.16;\r\n//pragma experimental ABIEncoderV2;\r\nimport \"./strings.sol\"; \r\n\r\ncontract rumor{\r\n/*区块链存储*/\r\n\tusing strings for *;  \r\n\tstring constant optStr = \"==>\";  \r\n\tstring constant leftOpt = \"(\";  \r\n\tstring constant rightOpt = \")\";  \r\n\t/*智能合约在执行过程中所发生的一系列事件*/\r\n\tevent SavedMessage(uint256 messageId,string trace);\r\n\t/*结构体*/\r\n\tstruct Message {  \r\n\t\tstring trace;\r\n\t\tstring trace2;   \r\n\t}\r\n\t\r\n\tmapping(string => Message) allMessage;\r\n\t \r\n\tconstructor () public{  \r\n\t}  \r\n\t/*溯源链*/\r\n\tfunction addMessageLine(string memory ID, string memory message ,string memory time) public {\r\n\t\tstring memory info1 = time.toSlice().concat(rightOpt.toSlice());  //(time\r\n\t\tstring memory info2 = leftOpt.toSlice().concat(info1.toSlice());  // time) \r\n\t\tstring memory info3 = message.toSlice().concat(info2.toSlice());  //(time)message\r\n\t\tstring memory concatStr = info3.toSlice().concat(optStr.toSlice());  //==>(time)message\r\n\t\tallMessage[ID].trace = allMessage[ID].trace.toSlice().concat(concatStr.toSlice());//==>(time)message + trace\r\n\t}\r\n\t\t/*溯源链2*/\r\n\tfunction addMessageLine2(string memory ID, string memory message ,string memory time) public {\r\n\t\tstring memory info1 = time.toSlice().concat(rightOpt.toSlice());  //(time\r\n\t\tstring memory info2 = leftOpt.toSlice().concat(info1.toSlice());  // time) \r\n\t\tstring memory info3 = message.toSlice().concat(info2.toSlice());  //(time)message\r\n\t\tstring memory concatStr = info3.toSlice().concat(optStr.toSlice());  //==>(time)message\r\n\t\tallMessage[ID].trace2 = allMessage[ID].trace2.toSlice().concat(concatStr.toSlice());//==>(time)message + trace2\r\n\t}\r\n\t/*获取信息*/\r\n\tfunction getTrace(string memory ID) public returns (string memory){\r\n\t\treturn allMessage[ID].trace;\r\n\t}\r\n\tfunction getTrace2(string memory ID) public returns (string memory){\r\n\t\treturn allMessage[ID].trace2;\r\n\t}\r\n}",
  "sourcePath": "C:\\Users\\15440\\Desktop\\message_HIDE\\nodejs\\geth\\test\\contracts\\rumor.sol",
  "compiler": {
    "name": "solc",
    "version": "0.5.16+commit.9c3226ce.Emscripten.clang"
  },
  "schemaVersion": "3.4.7",
  "updatedAt": "2022-05-31T07:20:34.669Z",
  "networkType": "ethereum",
  "devdoc": {
    "methods": {}
  },
  "userdoc": {
    "methods": {}
  }
}