{
  "contractName": "testTraceability_addTime",
  "abi": [
    {
      "inputs": [],
      "payable": false,
      "stateMutability": "nonpayable",
      "type": "constructor"
    },
    {
      "constant": false,
      "inputs": [
        {
          "internalType": "uint256",
          "name": "a",
          "type": "uint256"
        },
        {
          "internalType": "uint256",
          "name": "b",
          "type": "uint256"
        }
      ],
      "name": "addtest",
      "outputs": [
        {
          "internalType": "uint256",
          "name": "",
          "type": "uint256"
        }
      ],
      "payable": false,
      "stateMutability": "nonpayable",
      "type": "function"
    },
    {
      "constant": false,
      "inputs": [],
      "name": "getCount",
      "outputs": [
        {
          "internalType": "uint256",
          "name": "",
          "type": "uint256"
        }
      ],
      "payable": false,
      "stateMutability": "nonpayable",
      "type": "function"
    }
  ],
  "bytecode": "0x60806040526000805534801561001457600080fd5b5060f0806100236000396000f3fe6080604052348015600f57600080fd5b506004361060325760003560e01c8063370c72a1146037578063a87d942c146080575b600080fd5b606a60048036036040811015604b57600080fd5b810190808035906020019092919080359060200190929190505050609c565b6040518082815260200191505060405180910390f35b608660b2565b6040518082815260200191505060405180910390f35b6000818301600081905550600054905092915050565b6000805490509056fea265627a7a72315820a52a140ef7c315af99cf59846a9aeaeee4000970a9cf11e17fd99008e435762864736f6c63430005100032",
  "source": "pragma solidity ^0.5.16;\r\n\r\ncontract testTraceability_addTime{\r\n/*区块链存储*/\r\n\tuint count = 0;\r\n\tconstructor () public{  \r\n\t}  \r\n\r\n\t/*执行会写入数据，所以需要`transaction`的方式执行。*/\r\n\tfunction addtest(uint a, uint b) public returns(uint){\r\n\tcount = a+b;\r\n\treturn count;\r\n\t}\r\n\r\n\t/*执行不会写入数据，所以允许`call`的方式执行。*/\r\n\tfunction getCount() public returns (uint){\r\n\treturn count;\r\n\t}\r\n}",
  "sourcePath": "C:\\Users\\15440\\Desktop\\message_HIDE\\nodejs\\geth\\test\\contracts\\testTraceability_addTime.sol",
  "compiler": {
    "name": "solc",
    "version": "0.5.16+commit.9c3226ce.Emscripten.clang"
  },
  "schemaVersion": "3.4.7",
  "updatedAt": "2022-05-31T07:20:34.664Z",
  "networkType": "ethereum",
  "devdoc": {
    "methods": {}
  },
  "userdoc": {
    "methods": {}
  }
}